:04000000A0EF01F07C
:0800080084EF02F0000000008B
:1000100000000000000000008CEF02F010000D0A4C
:10002000426F6F746C6F616465722076312E30346C
:100030000D0A0000416775617264616E646F207023
:10004000726F6772616D612E2E2E0D0A0000EA6AD2
:100050004B0EE96EEF500EE0140E016E006A002E9A
:10006000FED7012EFBD7BF0E006E002EFED700D0AC
:10007000EF2EF2D7C8EF01F00900F5520DE0F6CFF0
:100080004BF0F7CF4CF0F5509EA8FED7AD6E4BC0AD
:10009000F6FF4CC0F7FFF0D712009EA8FED7AD6E5A
:1000A00012007F6B806B805101082BE37EC003F050
:1000B0007DC0E9FF7EC0EAFFEF50400810E27F51AB
:1000C000100DF3CF81F07EC003F07DC0E9FF7EC04C
:1000D000EAFFEF508125BF0F0A0F7F6F0CD07F51D1
:1000E000100DF3CF81F07DC0E9FF7EC0EAFFEF5035
:1000F0008125D00F7F6F8051802B7D2BD8B47E2B34
:10010000D2D77FC001F01200F250036EF29EA68E8D
:10011000A6840F01550EA76EAA0EA76EA682000038
:100120000350F21200011200D08CA69CF6503F0B37
:10013000006EC00EF6160A0079C001F0006607D006
:10014000EECFF5FF015204E00F00010603D00006D8
:100150000B000C003F0EF6143F0AF0E1A688D4DF36
:10016000D3DF0166EBD7F86A8FEF01F04B92516A4B
:10017000506A4BB2DBD0066A036A0650070FE96E7D
:10018000000E0320EA6E9EAAFED7AECFEFFF065008
:10019000062A036A070FE96E000E0320EA6EEF508D
:1001A0000D0803E006504008E7E2130E76DF4B80AF
:1001B00007503A08D8A4B3D07E6B080E7D6F71DF6C
:1001C00001C058F07E6B0A0E7D6F6BDF01C079F0C5
:1001D0007E6B0C0E7D6F65DF79C04FF001C04EF075
:1001E0007E6B0E0E7D6F5DDF01C04DF050C054F090
:1001F00051C055F04EC052F04FC053F04C6A010E42
:10020000576E030E065C575C14E2036A5750070FE3
:10021000016E000E032201C079F003C07AF003C022
:100220007EF001C07DF03DDF01504C26020E5726C6
:10023000E8D7FF0ED8804C54010F4C6E030E065CBD
:10024000036A070F016E000E032201C079F003C09C
:100250007AF003C07EF001C07DF023DF01504C5CDA
:1002600002E04B905CD04D2C02D04B8258D04D50C8
:10027000040811E17E6B100E7D6F13DF01C079F071
:100280007E6B120E7D6F0DDF01C07AF079C051F0E8
:1002900001C050F044D04D5242E1555205E1545254
:1002A00003E1535004083BE2555239E15450000831
:1002B00036E3090E576E566A030E065C575C23E25E
:1002C0005650562A036A590F016E000E032201C0D0
:1002D00079F003C07AF0036A5750070F016E000EE1
:1002E000032201C07BF003C07CF003C07EF001C09C
:1002F0007DF0D7DE7AC0EAFF79C0E9FF01C0EFFFE9
:10030000020E5726D9D754C0F8FF53C0F7FF52C08A
:10031000F6FFEA6A590EE96E58C079F005D74BA08E
:1003200002D0060EBADE110EB8DE23D7060EB5DEF9
:10033000110EB3DEFF009EEF01F018D7DBEF01F0E6
:10034000F86AD09EB886400EAF6E030EB06EA60E51
:10035000AC6E900EAB6E486A476A0F01386B396B12
:100360003A6B776A786A796A496A4A6A4950070833
:1003700011E09EAA04D09EAAFED7AECF49F04A2A29
:100380004A502808D8A006D0010E4B6E00015FD657
:100390000F01ECD7495007080FE11E0EF66E000E54
:1003A000F76E000169DE340EF66E000EF76E64DE45
:0E03B000070E73DEC2D70F010001A2D80300B2
:04050000FFD712000F
:020000040030CA
:0E00000000F2183C00BF81000FC00FE00F405F
:00000001FF
;PIC18F26K22
;CRC=2DF5  CREATED="13-set-16 16:45"
