:04050000DDEF02F039
:080508004E65737465207465F3
:1005100073746520746F646F7320636172616374B8
:100520006572657320646967697461646F732073B1
:100530006572616F207265746F726E61646F732C87
:1005400020646573746120666F726D6100002063C2
:100550006F6D706C6574616E646F20746F646F2072
:10056000706572637572736F20646520636F6D755B
:100570006E69636163616F205553422F525332336A
:10058000322D52533233322F5553420A0D00090097
:10059000F5520DE0F6CF07F0F7CF08F0F5509EA822
:1005A000FED7AD6E07C0F6FF08C0F7FFF0D7120008
:1005B0009EA8FED7AD6E04EF03F0F86AD09EB88611
:1005C000400EAF6E030EB06EA60EAC6E900EAB6E0C
:1005D000056A046A0F01386B396B3A6B776A786A7F
:1005E000796A080EF66E050EF76E0001D0DF4E0E2A
:1005F000F66E050EF76ECBDF9EAA06D09EAAFED73A
:0C060000AECF06F00650D4D7F7D70300A9
:020000040030CA
:0E00000000F2183C00BF81000FC00FE00F405F
:00000001FF
;PIC18F26K22
;CRC=17C0  CREATED="13-set-16 18:14"
