:0405000034EF03F0E1
:08050800D8B203D0EA6A1D0E0F
:10051000E96E006A016A026A036A1D6A1E6A1F6A3E
:10052000206A1C501B101A1019102CE0200E216E8E
:10053000D89015361636173618361D361E361F3625
:1005400020361C50205C08E11B501F5C05E11A504E
:100550001E5C02E119501D5C0FE319501D5E1A501C
:10056000D8A01A3C1E5E1B50D8A01B3C1F5E1C501E
:10057000D8A01C3C205ED8800036013602360336F7
:10058000212ED6D71DC0EFFF1EC0ECFF1FC0ECFF11
:1005900020C0ECFF1200E9500D6E3B0E146E9A0E57
:1005A000136ECA0E126E116A0A0E0F6ED882EA6AB4
:1005B000090EE96E0CC018F00BC017F00AC016F057
:1005C00009C015F014C01CF013C01BF012C01AF0C3
:1005D00011C019F099DF015000520FE10F50010ACC
:1005E0000CE00D500BE00F0B0F5C01E00DE20DBEB7
:1005F0000BD00DBC03D0200E02D00D6A300E0026A9
:1006000000509EA8FED7AD6ED89214C018F013C04B
:1006100017F012C016F011C015F01C6A1B6A1A6A96
:100620000A0E196E71DF03C014F002C013F001C08E
:1006300012F000C011F00F2EB9D760EF03F0EA6A94
:100640000A0EE96EEF500EE0140E016E006A002EE5
:10065000FED7012EFBD7BF0E006E002EFED700D0B6
:10066000EF2EF2D769EF03F0F86AD09EB886400EFD
:10067000AF6E030EB06EA60EAC6E900EAB6E0F0199
:10068000386B396B3A6B776A786A796A086A076AF5
:10069000066A056A94968B76010E0526D8B0062A5E
:1006A000D8B4072AD8B4082A410EE96E08C00CF065
:1006B00007C00BF006C00AF005C009F000016BD7B7
:1006C000200E9EA8FED7AD6E020E096EFA0E0A6EBF
:0C06D000B6D7092EFBD70F01DDD70300C1
:020000040030CA
:0E00000000F2183C00BF81000FC00FE00F405F
:00000001FF
;PIC18F26K22
;CRC=0F33  CREATED="18-set-16 18:57"
