:060000008031E02E00003B
:0800080083018031200077081C
:100010002200B3007808B4007908B5007A08B60069
:10002000230011082200B700230012082200B800A4
:10003000230013082200B900230014082200BA008C
:10004000850191308400001C2928200011184B28BC
:100050002200850192308400001D322820001219F0
:100060004D2822003308F7003408F8003508F9005D
:100070003608FA00370823009100220038082300D0
:100080009200220039082300930022003A0823003E
:100090009400090020008031022D883100280B00D7
:1000A0000434033409340434103403344234003447
:1000B000613400346234003475340034493400341F
:1000C0004E3400344F340034183403344234003496
:1000D00061340034623400347534003449340034FF
:1000E0004E3400344F34003420340034553400345E
:1000F0004E3400344F3400340B00003403340234E7
:10010000FF34FF34FF34FF34FF34FF34FF34FF3457
:10011000FF34FF34FF34FF34FF340B000034FF346E
:100120000234FF34FF34FF34FF34FF34FF34FF3434
:10013000FF34FF34FF34FF34FF34FF340B00083446
:1001400000340B34003440340034003400340034C4
:1001500000340034003400340034003400340034FF
:1001600000340034003400340034003400340034EF
:1001700000340034003400340034003400340B0008
:100180000834003400340034403400340034003487
:1001900000340034003400340034003400340034BF
:1001A00000340034003400340034003400340034AF
:1001B000003400340034003400340034003400349F
:1001C0000B00093402344334003402340134003467
:1001D0008034FA34093404340034003401340234F5
:1001E0000234013400340534243400341034013432
:1001F0000434243402340234053424340634003404
:100200000134053424340134003401340734053416
:10021000813403340B340034FA34093404340134A7
:10022000003402340A340034003400340734053416
:10023000023402344034003401340734053482344B
:1002400002344034003401340B0002340B00123409
:1002500017341B342034FF34FF34FF34FF340B00D9
:1002600012340134103401340234003400340834C0
:100270006134043403340034003401340134023472
:10028000003401340B00413454342B3442344F34A5
:100290004F3454340D3400340B00413454342B3477
:1002A0005234533454340D3400340B00413454343C
:1002B0002B3449344E3446344F340D3400340B0063
:1002C000413454342B34493444344E343F340D34A7
:1002D00000340B00413454342B344234413455340F
:1002E000443400340B0020342034203420342034B3
:1002F000203420342034203420342034203420345E
:100300002034203400340830A10020302400DF00E5
:100310001830DE005F082000A30024005E082000E3
:10032000A2008830A000A4012030A700A600080089
:1003300024006B10EA1B6B14EA136A08103C0318C4
:10034000A4290030F800BE296B1CB3296A082000DC
:100350007C20FF3C031DAE290030AF290130F8009E
:100360002400BE29BE296A0820008D20FF3C031D01
:10037000BB290030BC290130F8002400200008000F
:1003800098302400690784000E30850080016908D8
:10039000EA0020009821F8080319E6292400690DD5
:1003A000F700F70DF70DF830F705770884002030D7
:1003B00085008001690DF700F70DF70DF830F7059E
:1003C0007708043E8400203085008001200008006A
:1003D00001302400E8006808073C031CF62968087F
:1003E000E9002000C0212400E80AEB2920000800D1
:1003F0002400E301E2012530E1008030E0006008E4
:100400002200C900240061082200CA00CB01CC01EF
:100410002400E00160082200CD002400E001600813
:100420002200CE0008302400E00060082200CF0047
:10043000FB017610D101D001F5014010FC01200034
:1004400008002200C601C5012400DE015E08013C4F
:10045000031C342AC7305E0784002030850003184F
:10046000850A8001DE0A262A2000F8212200BD012B
:100470000130BE00BC01200008003D0090112000AA
:10048000080024006408F30020000800FF30F30097
:1004900008002400E1012200450846040319992AB6
:1004A00024006108073C0318572A2200992A2200D9
:1004B0003F08003A20000319642A023A03196F2A00
:1004C000013A03197A2A842A22004408FA004308D0
:1004D0002000E020F8002400E2002000842A22000E
:1004E0004408FA00430820004F20F8002400E200EE
:1004F0002000842A22004408FA00430820002F210B
:10050000F8002400E20020002200C30A0319C40AF4
:1005100045080319C603C50324006108E10A203E0B
:100520008400203085000318850A620880004B2A69
:10053000220045084604031DA62A24006108083C41
:10054000031DA42A2200A62A2200BC01240061085F
:10055000E400200041220800FE30F30008002400DF
:10056000610DF700F70DF70DF830F70577088400F7
:10057000203085000008E3006208023C031DC62A03
:10058000631FC42AE201C62A0130E2006208033C6C
:10059000031DDA2A8430E300610DF700F70DF70D33
:1005A000F830F7057708043E840020308500843059
:1005B0008000E12A620BDF2AC830E300E12A88309C
:1005C000E3000310610DE600660A2000BF20FA0078
:1005D000240066082000BF202400E4007A08E5001B
:1005E000610DF700F70DF70DF830F7057708013EBC
:1005F0008400203085006408800065186314E518C5
:10060000E314610DF700F70DF70DF830F7057708E3
:1006100084002030850063088000200008009830A6
:1006200024006E0784000E30850080080319272BF4
:100630006E0DF700F70DF70DF830F7057708043E5B
:100640008400203085000008EF00EF1F292B0030C8
:100650002A2B0130F8002000080024006908EE0071
:1006600020000F23F80803198E2B2400690DF700D2
:10067000F70DF70DF830F7057708043E013E8400CA
:10068000203085006A0880006C08023C031D5C2B4A
:10069000690DF700F70DF70DF830F7057708043E00
:1006A0008400203085000008ED006D1F592BEC01FF
:1006B0005B2B0130EC00722B6C08043C031D722B89
:1006C000690DF700F70DF70DF830F705770884008E
:1006D000203085000008ED006D1F712B0130EC000B
:1006E000722BEC016C0B772BC830ED00792B883026
:1006F000ED006B186D14EB18ED14690DF700F70D94
:10070000F70DF830F7057708043E840020308500A7
:100710006D0880000130F800912B20000030F800B7
:100720002400200008002200401002302400E100D4
:10073000E2002000AF2208002400E008031DDC2BAB
:100740007C08013A20000319AC2B023A0319B22BA2
:10075000013A0319B82BD92B2400E40120004122CF
:10076000FC01DA2B2400E40120004122FC01DA2BF9
:1007700038082200C900200039082200CA002000E1
:100780003A082200CB0020003B082200CC002000C9
:100790003C082200CD0020003D082200CE002000B1
:1007A0003E082200CF00FC012400E4012000412289
:1007B000DA2BFC01FE2B24006008023C031D002CF8
:1007C00022004014C20102302400E100610DF70054
:1007D000F70DF70DF830F7057708013E840020305B
:1007E0008500FA010008F8007A08F900780822006C
:1007F000C100C108031DFF2B200093232200240009
:100800002000080024006108EE0020000F23F808F3
:100810000319372C2400610DF700F70DF70DF830A0
:10082000F7057708043E023E84002030850000086A
:10083000E700013FE800630885006208840064085F
:10084000F80003192B2C680887006708860012003F
:100850001E00F80B272C6108E9006508EB0064080E
:10086000EA006608EC0020002D237808392C0030BF
:10087000F8000800F50803194E2C02302400E100AE
:100880002030E300D230E200E5017508E4000230D8
:10089000E60020000224F808031DF50108002400EA
:1008A000E008031D732C22003C0B5A2C2000492227
:1008B000712C22003C08023C031D702CBD01BC01C0
:1008C00074082400E10061083D0096002400E1085E
:1008D00003196D2C0430F2006F2C0230F20022005C
:1008E0002000792C24006008023C031D7A2C200093
:1008F0003A24240020000800C121CB060A00C121AF
:10090000CB060A000D05AD16AD16AD16AD16AD162B
:10091000AD16AD16AD16AD16AD16AD16AD060A0088
:10092000C227412944104927C627D226412AC92770
:10093000CE060A00C2274129441DA02ACE2720390D
:10094000B2060A00D222D624D3244F273A103117F8
:1009500030180D0500015029CF21C529D327521D7C
:100960002028C921A0183823321B6B19B2060A00AF
:100970004329D929D4204C1DA018B626683D0D0561
:1009800000014326CF214B1D201BB426683D0D05D9
:100990000001CD24D0293A10311B0D050001412260
:1009A000A021C8204E274526531DA018B3060A00D3
:1009B000D02B4D1DA01A0D050001C420431DA01809
:1009C000A81A2031693AF3140D050001AD16AD16D1
:1009D000AD16AD16AD16AD16AD16AD16AD16AD16FF
:1009E000AD16AD060A00C230E23A49274F1055272E
:1009F0004F00C63AF43AF2322033E530F43AF2329C
:100A00000D050001E13021008E0022008E11210031
:100A10008E0022000E1120001110803131283D007F
:100A20008E01920121000C148C14F2012200BB01F2
:100A30008B1BBB178B13200021222200BB1B8B17A3
:100A40003D008E19352D2200BB018B1BBB178B136C
:100A5000200021222200BB1B8B173D008E01143089
:100A6000910092018E150130F200720B442D8E1A06
:100A7000442D9001920121001215C0308B041130D9
:100A80003D0092000230F2007208023C031D212D4D
:100A900080312000262F20302400DB00D701D80130
:100AA000D901DA015108FA005008F9004F08F8009E
:100AB0004E08F7000310771C6B2D5208D707530818
:100AC0000318530FD80754080318540FD9075508B3
:100AD0000318550FDA07DA0CD90CD80CD70CFA0C1E
:100AE000F90CF80CF70CDB0B5A2D200008008318CA
:100AF0007D2D2130850077308400F701F801F90160
:100B0000FA012400D701D801D901DA0155085404AB
:100B1000530452040319BC2D2030DB000310CE0D0A
:100B2000CF0DD00DD10DD70DD80DD90DDA0D55083B
:100B30005A02031DA52D54085902031DA52D530863
:100B40005802031DA52D52085702031CB62D52084A
:100B5000D7025308031C530FD8025408031C540F28
:100B6000D9025508031C550FDA020314F70DF80DCE
:100B7000F90DFA0DDB0B8E2D570880005808813FC8
:100B80005908823F5A08833F200008002200401C79
:100B9000C72D4208C20A333E840020308500031866
:100BA000850A00082300DB00220041084202031CE2
:100BB000E22DBB018B1BBB178B132000932322005C
:100BC000BB1B8B1723005B08F80080312000332FFC
:100BD000111EE82D23009A002000080023006B0856
:100BE000FA006A0884007A088500800803193E2EFE
:100BF0006B08EF006A08EE006D082400A1002300D6
:100C00006C082400A0002108FA00200884007A085B
:100C1000850080080319292E23006F08FA006E084A
:100C200084007A08850000082400A2002108FA0048
:100C3000200884007A08850000082202031D292E5E
:100C40002300EE0A0319EF0A2400A00A0319A10ADF
:100C5000032E2108FA00200884007A088500800805
:100C6000031D392E23006A08F8006B08F900412E95
:100C700024002300EA0A0319EB0AEF2D0030F800E4
:100C8000F9002000080075083F3C003A031D632E60
:100C90002200BB018B1BBB178B1302302400EE001C
:100CA00020000F232200BB1B8B17F8080319612EAD
:100CB000BB018B1BBB178B1320003A242200BB1BEC
:100CC0008B172000432E23006D08EE006E08EF0006
:100CD000240020102100121D702E24002014210059
:100CE000121175083E3C0318772E3E30F50075084A
:100CF000F50AD23E8400203085000318850A2300BF
:100D00006F0880002400201C882E2100121524006A
:100D10002200BB018B1BBB178B1320003A2422003F
:100D2000BB1B8B17200008000B088B1323009517A3
:100D3000151400000000891B8B1713087F39031955
:100D4000D02EEA001108EB001208EC006A08ED0052
:100D50002000432623006B0891006C0892000B08CA
:100D60008B139517151400000000891B8B17130DAA
:100D7000140D7F390319D02EEA001108EB00120878
:100D8000EC006A08ED002000432623006B08910068
:100D90006C089200910A0319920A2000942E2300F5
:100DA00020000800911ED22E23001D08F000190813
:100DB000F800F01CDD2E1D121D16803120004B2F77
:100DC000F00123009F15E1309B0004309C00A63009
:100DD0009E0090309D00D401D301D801D701253069
:100DE000D6008030D500FD010830FE00D9018C010D
:100DF0008E01220092019101940193012300C1010F
:100E0000C2012030C300C400C500C600C700C8002E
:100E1000C900CA00CB00CC00CD00CE00CF00D0006E
:100E2000D100D201FF3021008C00E3308E00E13090
:100E30008E0022008E109D1125302000980099010F
:100E400021001114C0308B0420000F2D9031002898
:100E500080312200401C412FE13021008E00220011
:100E60008E152000C62D78082300DA005A082000CD
:100E7000E82523005A08DB00883120006A2C8031E5
:100E800022002000911E512FE13021008E0022000F
:100E90000E152000D22E78082300DB00ED00200084
:060EA0004326262F63002B
:101000001211F2080319682C3D0090080319672C8F
:10101000101D1228121D12288E101211101D1228D8
:1010200010110E288E1C17282000682C3D00901EE1
:101030002428921E2428181C232880312000832174
:1010400088313D0018109012901C2A28921C2A28E2
:1010500093019010101C4F28121C4F2893019001EF
:101060009F3097003D309200960180312000E821AA
:10107000883180312122883116303D009800901D42
:101080004728803120003D2288313D003F280E1244
:1010900080312000832188310330F2003D00101E92
:1010A0005628121E5628121510128E14101F5A2878
:1010B000121B1013901D672C921D672C0F08F10056
:1010C000803120003D228831710C2400DE00DE0CCE
:1010D000DE0C1F30DE05F108031D392C200020082E
:1010E0003C392400DF0043302000A00524005F08C5
:1010F000343C031D142C200024088039031DA40156
:101100002200BC01200038087F3903199128013AD8
:101110000319712A033A0319D02A233A0319752BAC
:10112000EA2B39080319A728013A0319B428023A0F
:101130000319C428063A0319D328033A0319E028EF
:101140000E3A03197429013A031980296D2A2200E5
:101150003E082000C000C10102302400E4008031BC
:10116000200041228831702A3A0BC0280130220029
:10117000BE052400E4018031200041228831C328CB
:10118000803146228831702A3A0BCF282200BE14C3
:101190002400E4018031200041228831D2288031AE
:1011A00046228831702A02302200BC0020003A0812
:1011B000F4002400E4018031200041228831702AAB
:1011C0002400E0012200C401C301BF0120003B084C
:1011D000013A0319F528033A0319FC28013A0319C7
:1011E0000129223A03192C2951292200C601123063
:1011F000C5000330BF0058292200C6014330C50096
:10120000582902302200BF002400E00120003A08E3
:101210002400600203181C2922004408FA00430835
:10122000803120004F208831F8002200C3070030B1
:10123000C43D2400E00A062922004408FA004308BD
:10124000803120004F208831F800FA017808220010
:10125000C5007A08C60058293A088031262188310D
:10126000F800FA0178082200C3007A08C400430F8E
:101270003C29C40803194C294408FA00430880316A
:101280002000E0208831F800FA0178082200C5002B
:101290007A08C60058295229803120004622883118
:1012A00073292200803120004622883173292200D0
:1012B0002000BF08031D6C292200C608031D6629F3
:1012C000450820003E0203186C292200C6012000B8
:1012D0003E082200C500200001302200BC00803101
:1012E000200049228831702A22003D082000C000D9
:1012F00001302400E4008031200041228831702A2E
:101300003A08013C031C6C2A3A082200BD00200068
:101310003A082400E000E008031D96290430F2009A
:1013200080312000E8218831662A24000530F2004F
:101330002030E3002830E2000130E1006108073C82
:10134000031C652A6108E90080312000C021883132
:101350002400E4016108803120008D208831FF3CA9
:1013600003190A2A04302400E4000310610DE80088
:10137000680A80312000BF208831FA002400680804
:1013800080312000BF2088312400E5007A08E60083
:10139000610DF700F70DF70DF830F7057708013EFE
:1013A00084002030850065088000610DF700F70D8E
:1013B000F70DF830F7057708023E840020308500ED
:1013C000620880006308813F0310610DE800680A2D
:1013D00080312000BF208831FA0024006808803165
:1013E0002000BF2088312400E2077A08E33D8830DE
:1013F000E70066186714E618E714610DF700F70DAB
:10140000F70DF830F705770884002030850067086D
:101410008000200024006108803120007C20883179
:10142000FF3C0319462A2400E414610DF700F70D70
:10143000F70DF830F7057708043E023E84002030AF
:101440008500620880006308813F0310610DE80099
:10145000680A803120009E208831FA002400680844
:10146000803120009E2088312400E2077A08E33D85
:10147000610DF700F70DF70DF830F7057708043E1A
:101480008400203085004030800020002400640863
:10149000063C031D4D2A0E30E400E40803195C2AC3
:1014A0006108803120007C208831013C031D5A2ACC
:1014B00024005C2A240064169830610784000E30F2
:1014C000850064088000E10A9E2920002400E401D0
:1014D0008031200041228831702A803146228831B3
:1014E000ED2B22003D082400E000200039080319FC
:1014F000802A0A3A03198A2A013A0319B12ACC2A06
:10150000C001C10102302400E400803120004122EA
:101510008831CF2A2400E0080319AC2A0130600288
:101520008031200024218831F8003C02031C9A2AD3
:101530002400AC2AC7303C07840020308500031803
:10154000850A0008C00001302400E400803120003A
:1015500041228831B02A240080312000462288317F
:10156000CF2A2400E0080319C72AC73020003C070F
:101570008400203085000318850A3A088000240082
:10158000E4018031200041228831CB2A24008031BF
:10159000200046228831CF2A803146228831ED2B27
:1015A0003C082400EA008031200098218831F808A6
:1015B0000319742B3908013A0319E52A023A031971
:1015C0000D2B033A0319362B712B3C082400E00045
:1015D0006110E01B6114E013611CFC2A600DF70030
:1015E000F70DF70DF830F7057708043E840020303A
:1015F000850088308000072B600DF700F70DF70D90
:10160000F830F70577088400203085008001E40178
:101610008031200041228831742B3C082400E000F6
:101620006110E01B6114E013611C242B600DF700B6
:10163000F70DF70DF830F7057708043E84002030E9
:10164000850084308000302B600DF700F70DF70D1A
:10165000F830F7057708840020308500843080005A
:10166000E4018031200041228831742BC001C10186
:101670003C082400E0006110E01B6114E013611CD1
:101680004F2B600DF700F70DF70DF830F7057708D1
:10169000043E8400203085000008E2005B2B600DD2
:1016A000F700F70DF70DF830F705770884002030C4
:1016B00085000008E200E21F5F2B6219612B0030F9
:1016C000622B0130F800F80803196A2B0130200062
:1016D000C00024000230E400803120004122883123
:1016E000742B803146228831ED2B3C0B782B7B2BE1
:1016F000BC08031DE92B3F082400E10020003E0840
:101700002400E000200039080319962B013A031940
:101710009C2B213A0319A42B013A0319AB2B033A52
:101720000319CF2B013A0319D82BE62B0130FC000B
:101730008031AC228831E92B24006008E40080313C
:10174000200041228831E92B0230FC0076148031E0
:10175000AC228831E92B220049082000C000220079
:101760004A082000C10022004B082000C2002200CD
:101770004C082000C30022004D082000C4002200B5
:101780004E082000C50022004F082000C600073088
:101790002400E4008031200041228831E92B3A08FE
:1017A000FB002400E4018031200041228831E92B34
:1017B0003A082200D10020003B082200D00024007B
:1017C000E4018031200041228831E92B803146221A
:1017D0008831ED2B8031462288313D000E12730F87
:1017E000FB2B2400E1010330E20080312000AF2216
:1017F0008831122C3D002400E1010230E2008031EA
:101800002000AF2288317308FE3C0319122C2400FB
:10181000E901EB017308EA000430EC00803120009C
:101820002D238831372C24005F08043C031D382CFD
:10183000E001803120009C2388312400E101023046
:10184000E20080312000AF2288317308FE3C03198A
:10185000372C730F2C2C372C2400E901EB01730873
:10186000EA000130EC00803120002D238831240073
:10187000652C7108043C031D542CFF30F300E0017B
:10188000803120004F248831730F472C522C2400C4
:10189000E901EB017308EA000230EC00803120001E
:1018A0002D238831642C240071195E2C5E08E00021
:1018B000803120009C238831642C24005E08E000E5
:1018C000803120004F24883124003D005A28200018
:1018D0008031312823005B08D100DC015C080D3C1D
:1018E000031C8B2C13305C07E8002130E90003183F
:1018F000E90A01305C07133E84002130850003189B
:10190000850A0008EA0069088500680884006A08FA
:101910008000DC0A6E2C5B080D3C031D4C2EF80188
:101920000930F700213085002D308400780880319F
:101930002000422188318000F80A0131F70BA12CE8
:10194000A32C2300962C21302300EB001330EA0057
:101950002130ED002D30EC0080312000EE25883163
:1019600079082300EB007808EA00EA08031DBB2C85
:10197000EB080319F12C7C30910004309200803187
:10198000200094268831E13021008E0022008E1440
:101990000330F700F70BCA2CCD2CE13021008E006C
:1019A00022008E100A302300E800213085003830F4
:1019B000840000080319EA2C0F30F800F701F70B38
:1019C000DF2CF80BDE2C8F30F700F70BE52C000036
:1019D000800BDC2C073080312000E8258831332E45
:1019E0002300F8010830F700213085002D308400F5
:1019F0007808803120004C2188318000F80A0131BC
:101A0000F70B032D052D2300F82C21302300EB00CC
:101A10001330EA002130ED002D30EC008031200041
:101A2000EE25883179082300EB007808EA00EA08FF
:101A3000031D1D2DEB080319362D7F309100043056
:101A400092008031200094268831E13021008E0000
:101A500022008E140330F700F70B2C2D2F2DE130D0
:101A600021008E0022008E10342E2300F801093050
:101A7000F700213085002D30840078088031200067
:101A8000552188318000F80A0131F70B482D4A2D85
:101A900023003D2D21302300EB001330EA002130DC
:101AA000ED002D30EC0080312000EE2588317908E2
:101AB0002300EB007808EA00EA08031D622DEB081A
:101AC0000319CF2D82309100043092008031200024
:101AD00094268831903023009100043092008031A8
:101AE0002000942688319A3023009100043092001F
:101AF0008031200094268831A230230091000430E8
:101B000092008031200094268831AB302300910070
:101B1000043092008031200094268831B8302300B0
:101B20009100043092008031200094268831C13029
:101B300023009100043092008031200094268831E7
:101B4000C930230091000430920080312000942697
:101B50008831CF3023009100043092008031200082
:101B600094268831D83023009100043092008031CF
:101B7000200094268831DD3023009100043092004B
:101B80008031200094268831E63023009100043013
:101B900092008031200094268831332E2300F801F2
:101BA0000930F700213085002D308400780880311D
:101BB00020005F2188318000F80A0131F70BE12D08
:101BC000E32D2300D62D21302300EB001330EA0053
:101BD0002130ED002D30EC0080312000EE258831E1
:101BE00079082300EB007808EA00EA08031DFB2DC2
:101BF000EB080319052EF330910004309200803178
:101C0000200094268831332E2300F8010830F70095
:101C1000213085002D308400780880312000692132
:101C200088318000F80A0131F70B172E192E230096
:101C30000C2E21302300EB001330EA002130ED00A0
:101C40002D30EC0080312000EE25883178087904B1
:101C50000319332EF93023009100043092008031B3
:101C600020009426883122002300E801E901213078
:101C7000850013308400680884070030853D6908BA
:101C800080312000722188318000003803194D2EE8
:0E1C90002300E90AE80A372E200080313F2F9A
:10200000220049082300DC0022004A082300DD00EA
:1020100022004B082300DE0022004C082300DF00D2
:102020005C085502031D20285D085602031D202868
:102030005E085702031D20285F0858020319032C6D
:10204000220049082300DC0022004A082300DD00AA
:1020500022004B082300DE0022004C082300DF0092
:102060005F08E3005E08E2005D08E1005C08E00054
:102070000230E700DC30E6006C30E500E4012400CB
:10208000BC01230063082400D1002300620824005F
:10209000D000230061082400CF0023006008240042
:1020A000CE00D501D401D3014030D20080312000D0
:1020B0004B259031230067082400D10023006608D7
:1020C0002400D000230065082400CF00230064080A
:1020D0002400CE007A08D5007908D4007808D3000F
:1020E0007708D20080312000772590317A082400CB
:1020F000AF007908AE007808AD007708AC00FF307B
:10210000AC07031CAD07031CAE07031CAF07AF08E9
:10211000031D9128AE08031D91282D08003C0318CB
:102120009628AF01AE01AD01FF30AC0001302C07A5
:10213000F70000302D3DF80000302E3DF900003052
:102140002F3DFA007A08D1007908D0007808CF0036
:102150007708CE00D501D401D3014030D2008031C0
:1021600020004B259031230067082400D100230074
:1021700066082400D000230065082400CF00230057
:1021800064082400CE007A08D5007908D4007808C5
:10219000D3007708D20080312000772590317A086B
:1021A00023006302031CE628031DFB287908620252
:1021B000031CE628031DFB2878086102031CE6289F
:1021C000031DFB28770860020318FB2860087702CC
:1021D0002400B40023006108783B2400B5002300EC
:1021E0006208793B2400B600230063087A3B240090
:1021F000B7000E292300770860022400B400780895
:102200002300613B2400B50079082300623B2400D1
:10221000B6007A082300633B2400B700230063085C
:102220002400D100230062082400D00023006108AC
:102230002400CF00230060082400CE00D501D40183
:10224000D3011030D200803120004B259031230083
:1022500067082400D100230066082400D000230072
:1022600065082400CF00230064082400CE007A080B
:10227000D5007908D4007808D3007708D2008031DF
:102280002000772590317A082400B3007908B20045
:102290007808B1007708B000FF30B007031CB10721
:1022A000031CB207031CB307B308031D5E29B20861
:1022B000031D5E293108003C03186329B301B201F4
:1022C000B101FF30B00001303007F7000030313D80
:1022D000F8000030323DF9000030333DFA007A0852
:1022E000D1007908D0007808CF007708CE00D5015A
:1022F000D401D3011030D200803120004B25903121
:10230000230067082400D100230066082400D000C1
:10231000230065082400CF00230064082400CE00B9
:102320007A08D5007908D4007808D3007708D2005D
:1023300080312000772590317A0823006302031C46
:10234000B329031DC82979086202031CB329031DA0
:10235000C82978086102031CB329031DC82977081E
:1023600060020318C829600877022400B80023001F
:102370006108783B2400B90023006208793B2400FF
:10238000BA00230063087A3B2400BB00DB2923004A
:10239000770860022400B80078082300613B24001D
:1023A000B90079082300623B2400BA007A082300B0
:1023B000633B2400BB0037083B02031CF129031DCB
:1023C000FF2936083A02031CF129031DFF293508AD
:1023D0003902031CF129031DFF2938083402031CAC
:1023E000FF290130BC003108AD003008AC003B08CB
:1023F000B7003A08B6003908B5003808B400230021
:1024000063082400D100230062082400D0002300C8
:1024100061082400CF00230060082400CE00D5010D
:10242000D401D3011030D200803120004B259031EF
:10243000230067082400D100230066082400D00090
:10244000230065082400CF00230064082400CE0088
:102450007A08D5007908D4007808D3007708D2002C
:1024600080312000772590317A082400B300790864
:10247000B2007808B1007708B000FF30B007031C45
:10248000B107031CB207031CB307B308031D4C2A92
:102490003208003C0318522AB301B201FF30B100E8
:1024A000FF30B00001303007F7000030313DF80058
:1024B0000030323DF9000030333DFA007A08D10097
:1024C0007908D0007808CF007708CE00D501D40174
:1024D000D3011030D200803120004B2590312300F1
:1024E00067082400D100230066082400D0002300E0
:1024F00065082400CF00230064082400CE007A0879
:10250000D5007908D4007808D3007708D20080314C
:102510002000772590317A0823006302031CA22A49
:10252000031DB72A79086202031CA22A031DB72AD9
:1025300078086102031CA22A031DB72A77086002EB
:102540000318B72A600877022400B8002300610846
:10255000783B2400B90023006208793B2400BA00CC
:10256000230063087A3B2400BB00CA2A23007708B3
:1025700060022400B80078082300613B2400B90001
:1025800079082300623B2400BA007A082300633BE9
:102590002400BB0037083B02031CE02A031DF02A7D
:1025A00036083A02031CE02A031DF02A35083902D6
:1025B000031CE02A031DF02A38083402031CF02A09
:1025C0000230BC00AF01AE013108AD003008AC00F4
:1025D0003B08B7003A08B6003908B5003808B4001F
:1025E000230063082400D100230062082400D000E7
:1025F000230061082400CF00230060082400CE00DF
:10260000D501D401D3010430D200803120004B2504
:102610009031230067082400D100230066082400BD
:10262000D000230065082400CF00230064082400A4
:10263000CE007A08D5007908D4007808D30077084E
:10264000D20080312000772590317A082400B30031
:102650007908B2007808B1007708B000FF30B00701
:10266000031CB107031CB207031CB307B308031D07
:102670003D2B3208003C0318432BB301B201FF305D
:10268000B100FF30B00001303007F7000030313DBD
:10269000F8000030323DF9000030333DFA007A088E
:1026A000D1007908D0007808CF007708CE00D50196
:1026B000D401D3010430D200803120004B25903169
:1026C000230067082400D100230066082400D000FE
:1026D000230065082400CF00230064082400CE00F6
:1026E0007A08D5007908D4007808D3007708D2009A
:1026F00080312000772590317A0823006302031C83
:10270000932B031DA82B79086202031C932B031D36
:10271000A82B78086102031C932B031DA82B7708B4
:1027200060020318A82B600877022400B800230079
:102730006108783B2400B90023006208793B24003B
:10274000BA00230063087A3B2400BB00BB2B2300A4
:10275000770860022400B80078082300613B240059
:10276000B90079082300623B2400BA007A082300EC
:10277000633B2400BB0037083B02031CD12B031D25
:10278000D72B36083A02031CD12B031DD72B350853
:102790003902031CD12B031DD72B38083402031C2C
:1027A000D72B0330BC003108AD003008AC00BC1C96
:1027B000DC2B23009F152400BC18E12B23009F1164
:1027C00024002C0823009B0024002D0823009C00DB
:1027D000A2309E0024003C1CF02B23001E15240078
:1027E000903023009D00220049082300D5002200DC
:1027F0004A082300D60022004B082300D7002200FD
:0C2800004C082300D80080312000282F55
:020000040001F9
:04000E008239CF1F45
:080000000000000000000100F7
:00000001FF
;PIC16F1455
;CRC=5194  CREATED="18-set-16 16:59"
